{
  "_format": "hh-sol-artifact-1",
  "contractName": "TimelockController",
  "sourceName": "@openzeppelin/contracts/governance/TimelockController.sol",
  "abi": [
    {
      "inputs": [
        {
          "internalType": "uint256",
          "name": "minDelay",
          "type": "uint256"
        },
        {
          "internalType": "address[]",
          "name": "proposers",
          "type": "address[]"
        },
        {
          "internalType": "address[]",
          "name": "executors",
          "type": "address[]"
        },
        {
          "internalType": "address",
          "name": "admin",
          "type": "address"
        }
      ],
      "stateMutability": "nonpayable",
      "type": "constructor"
    },
    {
      "inputs": [],
      "name": "AccessControlBadConfirmation",
      "type": "error"
    },
    {
      "inputs": [
        {
          "internalType": "address",
          "name": "account",
          "type": "address"
        },
        {
          "internalType": "bytes32",
          "name": "neededRole",
          "type": "bytes32"
        }
      ],
      "name": "AccessControlUnauthorizedAccount",
      "type": "error"
    },
    {
      "inputs": [],
      "name": "FailedCall",
      "type": "error"
    },
    {
      "inputs": [
        {
          "internalType": "uint256",
          "name": "delay",
          "type": "uint256"
        },
        {
          "internalType": "uint256",
          "name": "minDelay",
          "type": "uint256"
        }
      ],
      "name": "TimelockInsufficientDelay",
      "type": "error"
    },
    {
      "inputs": [
        {
          "internalType": "uint256",
          "name": "targets",
          "type": "uint256"
        },
        {
          "internalType": "uint256",
          "name": "payloads",
          "type": "uint256"
        },
        {
          "internalType": "uint256",
          "name": "values",
          "type": "uint256"
        }
      ],
      "name": "TimelockInvalidOperationLength",
      "type": "error"
    },
    {
      "inputs": [
        {
          "internalType": "address",
          "name": "caller",
          "type": "address"
        }
      ],
      "name": "TimelockUnauthorizedCaller",
      "type": "error"
    },
    {
      "inputs": [
        {
          "internalType": "bytes32",
          "name": "predecessorId",
          "type": "bytes32"
        }
      ],
      "name": "TimelockUnexecutedPredecessor",
      "type": "error"
    },
    {
      "inputs": [
        {
          "internalType": "bytes32",
          "name": "operationId",
          "type": "bytes32"
        },
        {
          "internalType": "bytes32",
          "name": "expectedStates",
          "type": "bytes32"
        }
      ],
      "name": "TimelockUnexpectedOperationState",
      "type": "error"
    },
    {
      "anonymous": false,
      "inputs": [
        {
          "indexed": true,
          "internalType": "bytes32",
          "name": "id",
          "type": "bytes32"
        },
        {
          "indexed": true,
          "internalType": "uint256",
          "name": "index",
          "type": "uint256"
        },
        {
          "indexed": false,
          "internalType": "address",
          "name": "target",
          "type": "address"
        },
        {
          "indexed": false,
          "internalType": "uint256",
          "name": "value",
          "type": "uint256"
        },
        {
          "indexed": false,
          "internalType": "bytes",
          "name": "data",
          "type": "bytes"
        }
      ],
      "name": "CallExecuted",
      "type": "event"
    },
    {
      "anonymous": false,
      "inputs": [
        {
          "indexed": true,
          "internalType": "bytes32",
          "name": "id",
          "type": "bytes32"
        },
        {
          "indexed": false,
          "internalType": "bytes32",
          "name": "salt",
          "type": "bytes32"
        }
      ],
      "name": "CallSalt",
      "type": "event"
    },
    {
      "anonymous": false,
      "inputs": [
        {
          "indexed": true,
          "internalType": "bytes32",
          "name": "id",
          "type": "bytes32"
        },
        {
          "indexed": true,
          "internalType": "uint256",
          "name": "index",
          "type": "uint256"
        },
        {
          "indexed": false,
          "internalType": "address",
          "name": "target",
          "type": "address"
        },
        {
          "indexed": false,
          "internalType": "uint256",
          "name": "value",
          "type": "uint256"
        },
        {
          "indexed": false,
          "internalType": "bytes",
          "name": "data",
          "type": "bytes"
        },
        {
          "indexed": false,
          "internalType": "bytes32",
          "name": "predecessor",
          "type": "bytes32"
        },
        {
          "indexed": false,
          "internalType": "uint256",
          "name": "delay",
          "type": "uint256"
        }
      ],
      "name": "CallScheduled",
      "type": "event"
    },
    {
      "anonymous": false,
      "inputs": [
        {
          "indexed": true,
          "internalType": "bytes32",
          "name": "id",
          "type": "bytes32"
        }
      ],
      "name": "Cancelled",
      "type": "event"
    },
    {
      "anonymous": false,
      "inputs": [
        {
          "indexed": false,
          "internalType": "uint256",
          "name": "oldDuration",
          "type": "uint256"
        },
        {
          "indexed": false,
          "internalType": "uint256",
          "name": "newDuration",
          "type": "uint256"
        }
      ],
      "name": "MinDelayChange",
      "type": "event"
    },
    {
      "anonymous": false,
      "inputs": [
        {
          "indexed": true,
          "internalType": "bytes32",
          "name": "role",
          "type": "bytes32"
        },
        {
          "indexed": true,
          "internalType": "bytes32",
          "name": "previousAdminRole",
          "type": "bytes32"
        },
        {
          "indexed": true,
          "internalType": "bytes32",
          "name": "newAdminRole",
          "type": "bytes32"
        }
      ],
      "name": "RoleAdminChanged",
      "type": "event"
    },
    {
      "anonymous": false,
      "inputs": [
        {
          "indexed": true,
          "internalType": "bytes32",
          "name": "role",
          "type": "bytes32"
        },
        {
          "indexed": true,
          "internalType": "address",
          "name": "account",
          "type": "address"
        },
        {
          "indexed": true,
          "internalType": "address",
          "name": "sender",
          "type": "address"
        }
      ],
      "name": "RoleGranted",
      "type": "event"
    },
    {
      "anonymous": false,
      "inputs": [
        {
          "indexed": true,
          "internalType": "bytes32",
          "name": "role",
          "type": "bytes32"
        },
        {
          "indexed": true,
          "internalType": "address",
          "name": "account",
          "type": "address"
        },
        {
          "indexed": true,
          "internalType": "address",
          "name": "sender",
          "type": "address"
        }
      ],
      "name": "RoleRevoked",
      "type": "event"
    },
    {
      "inputs": [],
      "name": "CANCELLER_ROLE",
      "outputs": [
        {
          "internalType": "bytes32",
          "name": "",
          "type": "bytes32"
        }
      ],
      "stateMutability": "view",
      "type": "function"
    },
    {
      "inputs": [],
      "name": "DEFAULT_ADMIN_ROLE",
      "outputs": [
        {
          "internalType": "bytes32",
          "name": "",
          "type": "bytes32"
        }
      ],
      "stateMutability": "view",
      "type": "function"
    },
    {
      "inputs": [],
      "name": "EXECUTOR_ROLE",
      "outputs": [
        {
          "internalType": "bytes32",
          "name": "",
          "type": "bytes32"
        }
      ],
      "stateMutability": "view",
      "type": "function"
    },
    {
      "inputs": [],
      "name": "PROPOSER_ROLE",
      "outputs": [
        {
          "internalType": "bytes32",
          "name": "",
          "type": "bytes32"
        }
      ],
      "stateMutability": "view",
      "type": "function"
    },
    {
      "inputs": [
        {
          "internalType": "bytes32",
          "name": "id",
          "type": "bytes32"
        }
      ],
      "name": "cancel",
      "outputs": [],
      "stateMutability": "nonpayable",
      "type": "function"
    },
    {
      "inputs": [
        {
          "internalType": "address",
          "name": "target",
          "type": "address"
        },
        {
          "internalType": "uint256",
          "name": "value",
          "type": "uint256"
        },
        {
          "internalType": "bytes",
          "name": "payload",
          "type": "bytes"
        },
        {
          "internalType": "bytes32",
          "name": "predecessor",
          "type": "bytes32"
        },
        {
          "internalType": "bytes32",
          "name": "salt",
          "type": "bytes32"
        }
      ],
      "name": "execute",
      "outputs": [],
      "stateMutability": "payable",
      "type": "function"
    },
    {
      "inputs": [
        {
          "internalType": "address[]",
          "name": "targets",
          "type": "address[]"
        },
        {
          "internalType": "uint256[]",
          "name": "values",
          "type": "uint256[]"
        },
        {
          "internalType": "bytes[]",
          "name": "payloads",
          "type": "bytes[]"
        },
        {
          "internalType": "bytes32",
          "name": "predecessor",
          "type": "bytes32"
        },
        {
          "internalType": "bytes32",
          "name": "salt",
          "type": "bytes32"
        }
      ],
      "name": "executeBatch",
      "outputs": [],
      "stateMutability": "payable",
      "type": "function"
    },
    {
      "inputs": [],
      "name": "getMinDelay",
      "outputs": [
        {
          "internalType": "uint256",
          "name": "",
          "type": "uint256"
        }
      ],
      "stateMutability": "view",
      "type": "function"
    },
    {
      "inputs": [
        {
          "internalType": "bytes32",
          "name": "id",
          "type": "bytes32"
        }
      ],
      "name": "getOperationState",
      "outputs": [
        {
          "internalType": "enum TimelockController.OperationState",
          "name": "",
          "type": "uint8"
        }
      ],
      "stateMutability": "view",
      "type": "function"
    },
    {
      "inputs": [
        {
          "internalType": "bytes32",
          "name": "role",
          "type": "bytes32"
        }
      ],
      "name": "getRoleAdmin",
      "outputs": [
        {
          "internalType": "bytes32",
          "name": "",
          "type": "bytes32"
        }
      ],
      "stateMutability": "view",
      "type": "function"
    },
    {
      "inputs": [
        {
          "internalType": "bytes32",
          "name": "id",
          "type": "bytes32"
        }
      ],
      "name": "getTimestamp",
      "outputs": [
        {
          "internalType": "uint256",
          "name": "",
          "type": "uint256"
        }
      ],
      "stateMutability": "view",
      "type": "function"
    },
    {
      "inputs": [
        {
          "internalType": "bytes32",
          "name": "role",
          "type": "bytes32"
        },
        {
          "internalType": "address",
          "name": "account",
          "type": "address"
        }
      ],
      "name": "grantRole",
      "outputs": [],
      "stateMutability": "nonpayable",
      "type": "function"
    },
    {
      "inputs": [
        {
          "internalType": "bytes32",
          "name": "role",
          "type": "bytes32"
        },
        {
          "internalType": "address",
          "name": "account",
          "type": "address"
        }
      ],
      "name": "hasRole",
      "outputs": [
        {
          "internalType": "bool",
          "name": "",
          "type": "bool"
        }
      ],
      "stateMutability": "view",
      "type": "function"
    },
    {
      "inputs": [
        {
          "internalType": "address",
          "name": "target",
          "type": "address"
        },
        {
          "internalType": "uint256",
          "name": "value",
          "type": "uint256"
        },
        {
          "internalType": "bytes",
          "name": "data",
          "type": "bytes"
        },
        {
          "internalType": "bytes32",
          "name": "predecessor",
          "type": "bytes32"
        },
        {
          "internalType": "bytes32",
          "name": "salt",
          "type": "bytes32"
        }
      ],
      "name": "hashOperation",
      "outputs": [
        {
          "internalType": "bytes32",
          "name": "",
          "type": "bytes32"
        }
      ],
      "stateMutability": "pure",
      "type": "function"
    },
    {
      "inputs": [
        {
          "internalType": "address[]",
          "name": "targets",
          "type": "address[]"
        },
        {
          "internalType": "uint256[]",
          "name": "values",
          "type": "uint256[]"
        },
        {
          "internalType": "bytes[]",
          "name": "payloads",
          "type": "bytes[]"
        },
        {
          "internalType": "bytes32",
          "name": "predecessor",
          "type": "bytes32"
        },
        {
          "internalType": "bytes32",
          "name": "salt",
          "type": "bytes32"
        }
      ],
      "name": "hashOperationBatch",
      "outputs": [
        {
          "internalType": "bytes32",
          "name": "",
          "type": "bytes32"
        }
      ],
      "stateMutability": "pure",
      "type": "function"
    },
    {
      "inputs": [
        {
          "internalType": "bytes32",
          "name": "id",
          "type": "bytes32"
        }
      ],
      "name": "isOperation",
      "outputs": [
        {
          "internalType": "bool",
          "name": "",
          "type": "bool"
        }
      ],
      "stateMutability": "view",
      "type": "function"
    },
    {
      "inputs": [
        {
          "internalType": "bytes32",
          "name": "id",
          "type": "bytes32"
        }
      ],
      "name": "isOperationDone",
      "outputs": [
        {
          "internalType": "bool",
          "name": "",
          "type": "bool"
        }
      ],
      "stateMutability": "view",
      "type": "function"
    },
    {
      "inputs": [
        {
          "internalType": "bytes32",
          "name": "id",
          "type": "bytes32"
        }
      ],
      "name": "isOperationPending",
      "outputs": [
        {
          "internalType": "bool",
          "name": "",
          "type": "bool"
        }
      ],
      "stateMutability": "view",
      "type": "function"
    },
    {
      "inputs": [
        {
          "internalType": "bytes32",
          "name": "id",
          "type": "bytes32"
        }
      ],
      "name": "isOperationReady",
      "outputs": [
        {
          "internalType": "bool",
          "name": "",
          "type": "bool"
        }
      ],
      "stateMutability": "view",
      "type": "function"
    },
    {
      "inputs": [
        {
          "internalType": "address",
          "name": "",
          "type": "address"
        },
        {
          "internalType": "address",
          "name": "",
          "type": "address"
        },
        {
          "internalType": "uint256[]",
          "name": "",
          "type": "uint256[]"
        },
        {
          "internalType": "uint256[]",
          "name": "",
          "type": "uint256[]"
        },
        {
          "internalType": "bytes",
          "name": "",
          "type": "bytes"
        }
      ],
      "name": "onERC1155BatchReceived",
      "outputs": [
        {
          "internalType": "bytes4",
          "name": "",
          "type": "bytes4"
        }
      ],
      "stateMutability": "nonpayable",
      "type": "function"
    },
    {
      "inputs": [
        {
          "internalType": "address",
          "name": "",
          "type": "address"
        },
        {
          "internalType": "address",
          "name": "",
          "type": "address"
        },
        {
          "internalType": "uint256",
          "name": "",
          "type": "uint256"
        },
        {
          "internalType": "uint256",
          "name": "",
          "type": "uint256"
        },
        {
          "internalType": "bytes",
          "name": "",
          "type": "bytes"
        }
      ],
      "name": "onERC1155Received",
      "outputs": [
        {
          "internalType": "bytes4",
          "name": "",
          "type": "bytes4"
        }
      ],
      "stateMutability": "nonpayable",
      "type": "function"
    },
    {
      "inputs": [
        {
          "internalType": "address",
          "name": "",
          "type": "address"
        },
        {
          "internalType": "address",
          "name": "",
          "type": "address"
        },
        {
          "internalType": "uint256",
          "name": "",
          "type": "uint256"
        },
        {
          "internalType": "bytes",
          "name": "",
          "type": "bytes"
        }
      ],
      "name": "onERC721Received",
      "outputs": [
        {
          "internalType": "bytes4",
          "name": "",
          "type": "bytes4"
        }
      ],
      "stateMutability": "nonpayable",
      "type": "function"
    },
    {
      "inputs": [
        {
          "internalType": "bytes32",
          "name": "role",
          "type": "bytes32"
        },
        {
          "internalType": "address",
          "name": "callerConfirmation",
          "type": "address"
        }
      ],
      "name": "renounceRole",
      "outputs": [],
      "stateMutability": "nonpayable",
      "type": "function"
    },
    {
      "inputs": [
        {
          "internalType": "bytes32",
          "name": "role",
          "type": "bytes32"
        },
        {
          "internalType": "address",
          "name": "account",
          "type": "address"
        }
      ],
      "name": "revokeRole",
      "outputs": [],
      "stateMutability": "nonpayable",
      "type": "function"
    },
    {
      "inputs": [
        {
          "internalType": "address",
          "name": "target",
          "type": "address"
        },
        {
          "internalType": "uint256",
          "name": "value",
          "type": "uint256"
        },
        {
          "internalType": "bytes",
          "name": "data",
          "type": "bytes"
        },
        {
          "internalType": "bytes32",
          "name": "predecessor",
          "type": "bytes32"
        },
        {
          "internalType": "bytes32",
          "name": "salt",
          "type": "bytes32"
        },
        {
          "internalType": "uint256",
          "name": "delay",
          "type": "uint256"
        }
      ],
      "name": "schedule",
      "outputs": [],
      "stateMutability": "nonpayable",
      "type": "function"
    },
    {
      "inputs": [
        {
          "internalType": "address[]",
          "name": "targets",
          "type": "address[]"
        },
        {
          "internalType": "uint256[]",
          "name": "values",
          "type": "uint256[]"
        },
        {
          "internalType": "bytes[]",
          "name": "payloads",
          "type": "bytes[]"
        },
        {
          "internalType": "bytes32",
          "name": "predecessor",
          "type": "bytes32"
        },
        {
          "internalType": "bytes32",
          "name": "salt",
          "type": "bytes32"
        },
        {
          "internalType": "uint256",
          "name": "delay",
          "type": "uint256"
        }
      ],
      "name": "scheduleBatch",
      "outputs": [],
      "stateMutability": "nonpayable",
      "type": "function"
    },
    {
      "inputs": [
        {
          "internalType": "bytes4",
          "name": "interfaceId",
          "type": "bytes4"
        }
      ],
      "name": "supportsInterface",
      "outputs": [
        {
          "internalType": "bool",
          "name": "",
          "type": "bool"
        }
      ],
      "stateMutability": "view",
      "type": "function"
    },
    {
      "inputs": [
        {
          "internalType": "uint256",
          "name": "newDelay",
          "type": "uint256"
        }
      ],
      "name": "updateDelay",
      "outputs": [],
      "stateMutability": "nonpayable",
      "type": "function"
    },
    {
      "stateMutability": "payable",
      "type": "receive"
    }
  ],
  "bytecode": "0x60806040523480156200001157600080fd5b50604051620020c3380380620020c3833981016040819052620000349162000340565b62000041600030620001b1565b506001600160a01b0381161562000061576200005f600082620001b1565b505b60005b83518110156200010b57620000bc7fb09aa5aeb3702cfd50b6b62bc4532604938f21248a27a1d5ca736082b6819cc1858381518110620000a857620000a8620003c7565b6020026020010151620001b160201b60201c565b50620000f77ffd643c72710c63c0180259aba6b2d05451e3591a24e58b62239378085726f783858381518110620000a857620000a8620003c7565b506200010381620003dd565b905062000064565b5060005b82518110156200016757620001537fd8aa0f3194971a2a116679f7c2090f6939c8d4e01a2a8d7e41d55e5351469e63848381518110620000a857620000a8620003c7565b506200015f81620003dd565b90506200010f565b5060028490556040805160008152602081018690527f11c24f4ead16507c69ac467fbd5e4eed5fb5c699626d2cc6d66421df253886d5910160405180910390a15050505062000405565b6000828152602081815260408083206001600160a01b038516845290915281205460ff1662000256576000838152602081815260408083206001600160a01b03861684529091529020805460ff191660011790556200020d3390565b6001600160a01b0316826001600160a01b0316847f2f8788117e7eff1d82e926ec794901d17c78024a50270940304540a733656f0d60405160405180910390a45060016200025a565b5060005b92915050565b634e487b7160e01b600052604160045260246000fd5b80516001600160a01b03811681146200028e57600080fd5b919050565b600082601f830112620002a557600080fd5b815160206001600160401b0380831115620002c457620002c462000260565b8260051b604051601f19603f83011681018181108482111715620002ec57620002ec62000260565b6040529384528581018301938381019250878511156200030b57600080fd5b83870191505b848210156200033557620003258262000276565b8352918301919083019062000311565b979650505050505050565b600080600080608085870312156200035757600080fd5b845160208601519094506001600160401b03808211156200037757600080fd5b620003858883890162000293565b945060408701519150808211156200039c57600080fd5b50620003ab8782880162000293565b925050620003bc6060860162000276565b905092959194509250565b634e487b7160e01b600052603260045260246000fd5b600060018201620003fe57634e487b7160e01b600052601160045260246000fd5b5060010190565b611cae80620004156000396000f3fe6080604052600436106101bb5760003560e01c80638065657f116100ec578063bc197c811161008a578063d547741f11610064578063d547741f146105c0578063e38335e5146105e0578063f23a6e61146105f3578063f27a0c921461063857600080fd5b8063bc197c811461052e578063c4d252f514610573578063d45c44351461059357600080fd5b806391d14854116100c657806391d1485414610481578063a217fddf146104c5578063b08e51c0146104da578063b1c5f4271461050e57600080fd5b80638065657f1461040d5780638f2a0bb01461042d5780638f61f4f51461044d57600080fd5b80632ab0f5291161015957806336568abe1161013357806336568abe14610380578063584b153e146103a057806364d62353146103c05780637958004c146103e057600080fd5b80632ab0f529146103205780632f2ff15d1461034057806331d507501461036057600080fd5b8063134008d311610195578063134008d31461026057806313bc9f2014610273578063150b7a0214610293578063248a9ca3146102f057600080fd5b806301d5062a146101c757806301ffc9a7146101e957806307bd02651461021e57600080fd5b366101c257005b600080fd5b3480156101d357600080fd5b506101e76101e23660046113ec565b61064d565b005b3480156101f557600080fd5b50610209610204366004611461565b610723565b60405190151581526020015b60405180910390f35b34801561022a57600080fd5b506102527fd8aa0f3194971a2a116679f7c2090f6939c8d4e01a2a8d7e41d55e5351469e6381565b604051908152602001610215565b6101e761026e36600461148b565b610734565b34801561027f57600080fd5b5061020961028e3660046114f7565b61082c565b34801561029f57600080fd5b506102d76102ae3660046115c7565b7f150b7a0200000000000000000000000000000000000000000000000000000000949350505050565b6040516001600160e01b03199091168152602001610215565b3480156102fc57600080fd5b5061025261030b3660046114f7565b60009081526020819052604090206001015490565b34801561032c57600080fd5b5061020961033b3660046114f7565b610852565b34801561034c57600080fd5b506101e761035b36600461162f565b61085b565b34801561036c57600080fd5b5061020961037b3660046114f7565b610886565b34801561038c57600080fd5b506101e761039b36600461162f565b6108ab565b3480156103ac57600080fd5b506102096103bb3660046114f7565b6108fc565b3480156103cc57600080fd5b506101e76103db3660046114f7565b610942565b3480156103ec57600080fd5b506104006103fb3660046114f7565b6109ce565b6040516102159190611671565b34801561041957600080fd5b5061025261042836600461148b565b610a19565b34801561043957600080fd5b506101e76104483660046116de565b610a58565b34801561045957600080fd5b506102527fb09aa5aeb3702cfd50b6b62bc4532604938f21248a27a1d5ca736082b6819cc181565b34801561048d57600080fd5b5061020961049c36600461162f565b6000918252602082815260408084206001600160a01b0393909316845291905290205460ff1690565b3480156104d157600080fd5b50610252600081565b3480156104e657600080fd5b506102527ffd643c72710c63c0180259aba6b2d05451e3591a24e58b62239378085726f78381565b34801561051a57600080fd5b50610252610529366004611790565b610c04565b34801561053a57600080fd5b506102d76105493660046118b9565b7fbc197c810000000000000000000000000000000000000000000000000000000095945050505050565b34801561057f57600080fd5b506101e761058e3660046114f7565b610c49565b34801561059f57600080fd5b506102526105ae3660046114f7565b60009081526001602052604090205490565b3480156105cc57600080fd5b506101e76105db36600461162f565b610cf4565b6101e76105ee366004611790565b610d19565b3480156105ff57600080fd5b506102d761060e366004611963565b7ff23a6e610000000000000000000000000000000000000000000000000000000095945050505050565b34801561064457600080fd5b50600254610252565b7fb09aa5aeb3702cfd50b6b62bc4532604938f21248a27a1d5ca736082b6819cc161067781610eff565b6000610687898989898989610a19565b90506106938184610f0c565b6000817f4cf4410cc57040e44862ef0f45f3dd5a5e02db8eb8add648d4b0e236f1d07dca8b8b8b8b8b8a6040516106cf969594939291906119f1565b60405180910390a3831561071857807f20fda5fd27a1ea7bf5b9567f143ac5470bb059374a27e8f67cb44f946f6d03878560405161070f91815260200190565b60405180910390a25b505050505050505050565b600061072e82610fb9565b92915050565b600080527fdae2aa361dfd1ca020a396615627d436107c35eff9fe7738a3512819782d70696020527f5ba6852781629bcdcd4bdaa6de76d786f1c64b16acdac474e55bebc0ea157951547fd8aa0f3194971a2a116679f7c2090f6939c8d4e01a2a8d7e41d55e5351469e639060ff166107b1576107b18133610ff7565b60006107c1888888888888610a19565b90506107cd8185611067565b6107d9888888886110ce565b6000817fc2617efa69bab66782fa219543714338489c4e9e178271560a91b82c3f612b588a8a8a8a6040516108119493929190611a2f565b60405180910390a361082281611146565b5050505050505050565b600060025b61083a836109ce565b600381111561084b5761084b61165b565b1492915050565b60006003610831565b60008281526020819052604090206001015461087681610eff565b6108808383611172565b50505050565b600080610892836109ce565b60038111156108a3576108a361165b565b141592915050565b6001600160a01b03811633146108ed576040517f6697b23200000000000000000000000000000000000000000000000000000000815260040160405180910390fd5b6108f7828261121c565b505050565b600080610908836109ce565b9050600181600381111561091e5761091e61165b565b148061093b575060028160038111156109395761093961165b565b145b9392505050565b3330811461098c576040517fe2850c590000000000000000000000000000000000000000000000000000000081526001600160a01b03821660048201526024015b60405180910390fd5b60025460408051918252602082018490527f11c24f4ead16507c69ac467fbd5e4eed5fb5c699626d2cc6d66421df253886d5910160405180910390a150600255565b600081815260016020526040812054806000036109ee5750600092915050565b600181036109ff5750600392915050565b42811115610a105750600192915050565b50600292915050565b6000868686868686604051602001610a36969594939291906119f1565b6040516020818303038152906040528051906020012090509695505050505050565b7fb09aa5aeb3702cfd50b6b62bc4532604938f21248a27a1d5ca736082b6819cc1610a8281610eff565b8887141580610a915750888514155b15610ad9576040517fffb03211000000000000000000000000000000000000000000000000000000008152600481018a90526024810186905260448101889052606401610983565b6000610aeb8b8b8b8b8b8b8b8b610c04565b9050610af78184610f0c565b60005b8a811015610bb55780827f4cf4410cc57040e44862ef0f45f3dd5a5e02db8eb8add648d4b0e236f1d07dca8e8e85818110610b3757610b37611a62565b9050602002016020810190610b4c9190611a78565b8d8d86818110610b5e57610b5e611a62565b905060200201358c8c87818110610b7757610b77611a62565b9050602002810190610b899190611a93565b8c8b604051610b9d969594939291906119f1565b60405180910390a3610bae81611af0565b9050610afa565b508315610bf757807f20fda5fd27a1ea7bf5b9567f143ac5470bb059374a27e8f67cb44f946f6d038785604051610bee91815260200190565b60405180910390a25b5050505050505050505050565b60008888888888888888604051602001610c25989796959493929190611b9b565b60405160208183030381529060405280519060200120905098975050505050505050565b7ffd643c72710c63c0180259aba6b2d05451e3591a24e58b62239378085726f783610c7381610eff565b610c7c826108fc565b610cb85781610c8b600261129f565b610c95600161129f565b604051635ead8eb560e01b81526004810193909352176024820152604401610983565b6000828152600160205260408082208290555183917fbaa1eb22f2a492ba1a5fea61b8df4d27c6c8b5f3971e63bb58fa14ff72eedb7091a25050565b600082815260208190526040902060010154610d0f81610eff565b610880838361121c565b600080527fdae2aa361dfd1ca020a396615627d436107c35eff9fe7738a3512819782d70696020527f5ba6852781629bcdcd4bdaa6de76d786f1c64b16acdac474e55bebc0ea157951547fd8aa0f3194971a2a116679f7c2090f6939c8d4e01a2a8d7e41d55e5351469e639060ff16610d9657610d968133610ff7565b8786141580610da55750878414155b15610ded576040517fffb03211000000000000000000000000000000000000000000000000000000008152600481018990526024810185905260448101879052606401610983565b6000610dff8a8a8a8a8a8a8a8a610c04565b9050610e0b8185611067565b60005b89811015610ee95760008b8b83818110610e2a57610e2a611a62565b9050602002016020810190610e3f9190611a78565b905060008a8a84818110610e5557610e55611a62565b9050602002013590503660008a8a86818110610e7357610e73611a62565b9050602002810190610e859190611a93565b91509150610e95848484846110ce565b84867fc2617efa69bab66782fa219543714338489c4e9e178271560a91b82c3f612b5886868686604051610ecc9493929190611a2f565b60405180910390a35050505080610ee290611af0565b9050610e0e565b50610ef381611146565b50505050505050505050565b610f098133610ff7565b50565b610f1582610886565b15610f475781610f25600061129f565b604051635ead8eb560e01b815260048101929092526024820152604401610983565b6000610f5260025490565b905080821015610f98576040517f543366090000000000000000000000000000000000000000000000000000000081526004810183905260248101829052604401610983565b610fa28242611c55565b600093845260016020526040909320929092555050565b60006001600160e01b031982167f4e2312e000000000000000000000000000000000000000000000000000000000148061072e575061072e826112c2565b6000828152602081815260408083206001600160a01b038516845290915290205460ff16611063576040517fe2517d3f0000000000000000000000000000000000000000000000000000000081526001600160a01b038216600482015260248101839052604401610983565b5050565b6110708261082c565b61107f5781610f25600261129f565b8015801590611094575061109281610852565b155b15611063576040517f90a9a61800000000000000000000000000000000000000000000000000000000815260048101829052602401610983565b600080856001600160a01b03168585856040516110ec929190611c68565b60006040518083038185875af1925050503d8060008114611129576040519150601f19603f3d011682016040523d82523d6000602084013e61112e565b606091505b509150915061113d8282611329565b50505050505050565b61114f8161082c565b61115e5780610f25600261129f565b600090815260016020819052604090912055565b6000828152602081815260408083206001600160a01b038516845290915281205460ff16611214576000838152602081815260408083206001600160a01b03861684529091529020805460ff191660011790556111cc3390565b6001600160a01b0316826001600160a01b0316847f2f8788117e7eff1d82e926ec794901d17c78024a50270940304540a733656f0d60405160405180910390a450600161072e565b50600061072e565b6000828152602081815260408083206001600160a01b038516845290915281205460ff1615611214576000838152602081815260408083206001600160a01b0386168085529252808320805460ff1916905551339286917ff6391f5c32d9c69d2a47ea670b442974b53935d1edc7fd64eb21e047a839171b9190a450600161072e565b60008160038111156112b3576112b361165b565b600160ff919091161b92915050565b60006001600160e01b031982167f7965db0b00000000000000000000000000000000000000000000000000000000148061072e57507f01ffc9a7000000000000000000000000000000000000000000000000000000006001600160e01b031983161461072e565b60608261133e5761133982611345565b61072e565b508061072e565b8051156113555780518082602001fd5b6040517fd6bda27500000000000000000000000000000000000000000000000000000000815260040160405180910390fd5b80356001600160a01b038116811461139e57600080fd5b919050565b60008083601f8401126113b557600080fd5b50813567ffffffffffffffff8111156113cd57600080fd5b6020830191508360208285010111156113e557600080fd5b9250929050565b600080600080600080600060c0888a03121561140757600080fd5b61141088611387565b965060208801359550604088013567ffffffffffffffff81111561143357600080fd5b61143f8a828b016113a3565b989b979a50986060810135976080820135975060a09091013595509350505050565b60006020828403121561147357600080fd5b81356001600160e01b03198116811461093b57600080fd5b60008060008060008060a087890312156114a457600080fd5b6114ad87611387565b955060208701359450604087013567ffffffffffffffff8111156114d057600080fd5b6114dc89828a016113a3565b979a9699509760608101359660809091013595509350505050565b60006020828403121561150957600080fd5b5035919050565b634e487b7160e01b600052604160045260246000fd5b604051601f8201601f1916810167ffffffffffffffff8111828210171561154f5761154f611510565b604052919050565b600082601f83011261156857600080fd5b813567ffffffffffffffff81111561158257611582611510565b611595601f8201601f1916602001611526565b8181528460208386010111156115aa57600080fd5b816020850160208301376000918101602001919091529392505050565b600080600080608085870312156115dd57600080fd5b6115e685611387565b93506115f460208601611387565b925060408501359150606085013567ffffffffffffffff81111561161757600080fd5b61162387828801611557565b91505092959194509250565b6000806040838503121561164257600080fd5b8235915061165260208401611387565b90509250929050565b634e487b7160e01b600052602160045260246000fd5b602081016004831061169357634e487b7160e01b600052602160045260246000fd5b91905290565b60008083601f8401126116ab57600080fd5b50813567ffffffffffffffff8111156116c357600080fd5b6020830191508360208260051b85010111156113e557600080fd5b600080600080600080600080600060c08a8c0312156116fc57600080fd5b893567ffffffffffffffff8082111561171457600080fd5b6117208d838e01611699565b909b50995060208c013591508082111561173957600080fd5b6117458d838e01611699565b909950975060408c013591508082111561175e57600080fd5b5061176b8c828d01611699565b9a9d999c50979a969997986060880135976080810135975060a0013595509350505050565b60008060008060008060008060a0898b0312156117ac57600080fd5b883567ffffffffffffffff808211156117c457600080fd5b6117d08c838d01611699565b909a50985060208b01359150808211156117e957600080fd5b6117f58c838d01611699565b909850965060408b013591508082111561180e57600080fd5b5061181b8b828c01611699565b999c989b509699959896976060870135966080013595509350505050565b600082601f83011261184a57600080fd5b8135602067ffffffffffffffff82111561186657611866611510565b8160051b611875828201611526565b928352848101820192828101908785111561188f57600080fd5b83870192505b848310156118ae57823582529183019190830190611895565b979650505050505050565b600080600080600060a086880312156118d157600080fd5b6118da86611387565b94506118e860208701611387565b9350604086013567ffffffffffffffff8082111561190557600080fd5b61191189838a01611839565b9450606088013591508082111561192757600080fd5b61193389838a01611839565b9350608088013591508082111561194957600080fd5b5061195688828901611557565b9150509295509295909350565b600080600080600060a0868803121561197b57600080fd5b61198486611387565b945061199260208701611387565b93506040860135925060608601359150608086013567ffffffffffffffff8111156119bc57600080fd5b61195688828901611557565b81835281816020850137506000828201602090810191909152601f909101601f19169091010190565b6001600160a01b038716815285602082015260a060408201526000611a1a60a0830186886119c8565b60608301949094525060800152949350505050565b6001600160a01b0385168152836020820152606060408201526000611a586060830184866119c8565b9695505050505050565b634e487b7160e01b600052603260045260246000fd5b600060208284031215611a8a57600080fd5b61093b82611387565b6000808335601e19843603018112611aaa57600080fd5b83018035915067ffffffffffffffff821115611ac557600080fd5b6020019150368190038213156113e557600080fd5b634e487b7160e01b600052601160045260246000fd5b600060018201611b0257611b02611ada565b5060010190565b81835260006020808501808196508560051b810191508460005b87811015611b8e5782840389528135601e19883603018112611b4457600080fd5b8701858101903567ffffffffffffffff811115611b6057600080fd5b803603821315611b6f57600080fd5b611b7a8682846119c8565b9a87019a9550505090840190600101611b23565b5091979650505050505050565b60a0808252810188905260008960c08301825b8b811015611bdc576001600160a01b03611bc784611387565b16825260209283019290910190600101611bae565b5083810360208501528881527f07ffffffffffffffffffffffffffffffffffffffffffffffffffffffffffffff891115611c1557600080fd5b8860051b9150818a60208301370182810360209081016040850152611c3d9082018789611b09565b60608401959095525050608001529695505050505050565b8082018082111561072e5761072e611ada565b818382376000910190815291905056fea26469706673582212202e9dfcbd132d4d1f0690512e70e403507b53421abe434bcaad977958ddf5daef64736f6c63430008140033",
  "linkReferences": {},
  "deployedLinkReferences": {}
}